{
  "_format": "hh-sol-artifact-1",
  "contractName": "MyNFT",
  "sourceName": "contracts/MyNFT.sol",
  "abi": [
    {
      "inputs": [],
      "stateMutability": "nonpayable",
      "type": "constructor"
    },
    {
      "anonymous": false,
      "inputs": [
        {
          "indexed": true,
          "internalType": "address",
          "name": "owner",
          "type": "address"
        },
        {
          "indexed": true,
          "internalType": "address",
          "name": "approved",
          "type": "address"
        },
        {
          "indexed": true,
          "internalType": "uint256",
          "name": "tokenId",
          "type": "uint256"
        }
      ],
      "name": "Approval",
      "type": "event"
    },
    {
      "anonymous": false,
      "inputs": [
        {
          "indexed": true,
          "internalType": "address",
          "name": "owner",
          "type": "address"
        },
        {
          "indexed": true,
          "internalType": "address",
          "name": "operator",
          "type": "address"
        },
        {
          "indexed": false,
          "internalType": "bool",
          "name": "approved",
          "type": "bool"
        }
      ],
      "name": "ApprovalForAll",
      "type": "event"
    },
    {
      "anonymous": false,
      "inputs": [
        {
          "indexed": true,
          "internalType": "address",
          "name": "previousOwner",
          "type": "address"
        },
        {
          "indexed": true,
          "internalType": "address",
          "name": "newOwner",
          "type": "address"
        }
      ],
      "name": "OwnershipTransferred",
      "type": "event"
    },
    {
      "anonymous": false,
      "inputs": [
        {
          "indexed": true,
          "internalType": "address",
          "name": "from",
          "type": "address"
        },
        {
          "indexed": true,
          "internalType": "address",
          "name": "to",
          "type": "address"
        },
        {
          "indexed": true,
          "internalType": "uint256",
          "name": "tokenId",
          "type": "uint256"
        }
      ],
      "name": "Transfer",
      "type": "event"
    },
    {
      "anonymous": false,
      "inputs": [
        {
          "indexed": false,
          "internalType": "uint256",
          "name": "",
          "type": "uint256"
        }
      ],
      "name": "token",
      "type": "event"
    },
    {
      "inputs": [
        {
          "internalType": "address",
          "name": "to",
          "type": "address"
        },
        {
          "internalType": "uint256",
          "name": "tokenId",
          "type": "uint256"
        }
      ],
      "name": "approve",
      "outputs": [],
      "stateMutability": "nonpayable",
      "type": "function"
    },
    {
      "inputs": [
        {
          "internalType": "address",
          "name": "owner",
          "type": "address"
        }
      ],
      "name": "balanceOf",
      "outputs": [
        {
          "internalType": "uint256",
          "name": "",
          "type": "uint256"
        }
      ],
      "stateMutability": "view",
      "type": "function"
    },
    {
      "inputs": [
        {
          "internalType": "uint256",
          "name": "tokenId",
          "type": "uint256"
        }
      ],
      "name": "burner",
      "outputs": [],
      "stateMutability": "nonpayable",
      "type": "function"
    },
    {
      "inputs": [
        {
          "internalType": "uint256",
          "name": "tokenId",
          "type": "uint256"
        }
      ],
      "name": "getApproved",
      "outputs": [
        {
          "internalType": "address",
          "name": "",
          "type": "address"
        }
      ],
      "stateMutability": "view",
      "type": "function"
    },
    {
      "inputs": [
        {
          "internalType": "address",
          "name": "owner",
          "type": "address"
        },
        {
          "internalType": "address",
          "name": "operator",
          "type": "address"
        }
      ],
      "name": "isApprovedForAll",
      "outputs": [
        {
          "internalType": "bool",
          "name": "",
          "type": "bool"
        }
      ],
      "stateMutability": "view",
      "type": "function"
    },
    {
      "inputs": [
        {
          "internalType": "address",
          "name": "recipient",
          "type": "address"
        },
        {
          "internalType": "string",
          "name": "tokenURI",
          "type": "string"
        },
        {
          "internalType": "uint256",
          "name": "warranty",
          "type": "uint256"
        }
      ],
      "name": "mintNFT",
      "outputs": [
        {
          "internalType": "uint256",
          "name": "",
          "type": "uint256"
        }
      ],
      "stateMutability": "nonpayable",
      "type": "function"
    },
    {
      "inputs": [
        {
          "internalType": "uint256",
          "name": "",
          "type": "uint256"
        }
      ],
      "name": "mp",
      "outputs": [
        {
          "internalType": "uint256",
          "name": "",
          "type": "uint256"
        }
      ],
      "stateMutability": "view",
      "type": "function"
    },
    {
      "inputs": [],
      "name": "name",
      "outputs": [
        {
          "internalType": "string",
          "name": "",
          "type": "string"
        }
      ],
      "stateMutability": "view",
      "type": "function"
    },
    {
      "inputs": [],
      "name": "owner",
      "outputs": [
        {
          "internalType": "address",
          "name": "",
          "type": "address"
        }
      ],
      "stateMutability": "view",
      "type": "function"
    },
    {
      "inputs": [
        {
          "internalType": "uint256",
          "name": "tokenId",
          "type": "uint256"
        }
      ],
      "name": "ownerOf",
      "outputs": [
        {
          "internalType": "address",
          "name": "",
          "type": "address"
        }
      ],
      "stateMutability": "view",
      "type": "function"
    },
    {
      "inputs": [],
      "name": "renounceOwnership",
      "outputs": [],
      "stateMutability": "nonpayable",
      "type": "function"
    },
    {
      "inputs": [
        {
          "internalType": "address",
          "name": "from",
          "type": "address"
        },
        {
          "internalType": "address",
          "name": "to",
          "type": "address"
        },
        {
          "internalType": "uint256",
          "name": "tokenId",
          "type": "uint256"
        }
      ],
      "name": "safeTransferFrom",
      "outputs": [],
      "stateMutability": "nonpayable",
      "type": "function"
    },
    {
      "inputs": [
        {
          "internalType": "address",
          "name": "from",
          "type": "address"
        },
        {
          "internalType": "address",
          "name": "to",
          "type": "address"
        },
        {
          "internalType": "uint256",
          "name": "tokenId",
          "type": "uint256"
        },
        {
          "internalType": "bytes",
          "name": "data",
          "type": "bytes"
        }
      ],
      "name": "safeTransferFrom",
      "outputs": [],
      "stateMutability": "nonpayable",
      "type": "function"
    },
    {
      "inputs": [
        {
          "internalType": "address",
          "name": "operator",
          "type": "address"
        },
        {
          "internalType": "bool",
          "name": "approved",
          "type": "bool"
        }
      ],
      "name": "setApprovalForAll",
      "outputs": [],
      "stateMutability": "nonpayable",
      "type": "function"
    },
    {
      "inputs": [
        {
          "internalType": "bytes4",
          "name": "interfaceId",
          "type": "bytes4"
        }
      ],
      "name": "supportsInterface",
      "outputs": [
        {
          "internalType": "bool",
          "name": "",
          "type": "bool"
        }
      ],
      "stateMutability": "view",
      "type": "function"
    },
    {
      "inputs": [],
      "name": "symbol",
      "outputs": [
        {
          "internalType": "string",
          "name": "",
          "type": "string"
        }
      ],
      "stateMutability": "view",
      "type": "function"
    },
    {
      "inputs": [
        {
          "internalType": "uint256",
          "name": "tokenId",
          "type": "uint256"
        }
      ],
      "name": "tokenURI",
      "outputs": [
        {
          "internalType": "string",
          "name": "",
          "type": "string"
        }
      ],
      "stateMutability": "view",
      "type": "function"
    },
    {
      "inputs": [
        {
          "internalType": "address",
          "name": "from",
          "type": "address"
        },
        {
          "internalType": "address",
          "name": "to",
          "type": "address"
        },
        {
          "internalType": "uint256",
          "name": "tokenId",
          "type": "uint256"
        }
      ],
      "name": "transferFrom",
      "outputs": [],
      "stateMutability": "nonpayable",
      "type": "function"
    },
    {
      "inputs": [
        {
          "internalType": "address",
          "name": "newOwner",
          "type": "address"
        }
      ],
      "name": "transferOwnership",
      "outputs": [],
      "stateMutability": "nonpayable",
      "type": "function"
    }
  ],
  "bytecode": "0x60806040523480156200001157600080fd5b506040518060400160405280600581526020017f4d794e46540000000000000000000000000000000000000000000000000000008152506040518060400160405280600381526020017f4e46540000000000000000000000000000000000000000000000000000000000815250816000908051906020019062000096929190620001a6565b508060019080519060200190620000af929190620001a6565b505050620000d2620000c6620000d860201b60201c565b620000e060201b60201c565b620002bb565b600033905090565b6000600760009054906101000a900473ffffffffffffffffffffffffffffffffffffffff16905081600760006101000a81548173ffffffffffffffffffffffffffffffffffffffff021916908373ffffffffffffffffffffffffffffffffffffffff1602179055508173ffffffffffffffffffffffffffffffffffffffff168173ffffffffffffffffffffffffffffffffffffffff167f8be0079c531659141344cd1fd0a4f28419497f9722a3daafe3b4186f6b6457e060405160405180910390a35050565b828054620001b49062000256565b90600052602060002090601f016020900481019282620001d8576000855562000224565b82601f10620001f357805160ff191683800117855562000224565b8280016001018555821562000224579182015b828111156200022357825182559160200191906001019062000206565b5b50905062000233919062000237565b5090565b5b808211156200025257600081600090555060010162000238565b5090565b600060028204905060018216806200026f57607f821691505b602082108114156200028657620002856200028c565b5b50919050565b7f4e487b7100000000000000000000000000000000000000000000000000000000600052602260045260246000fd5b612f6780620002cb6000396000f3fe608060405234801561001057600080fd5b50600436106101215760003560e01c806370a08231116100ad578063b88d4fde11610071578063b88d4fde14610306578063c87b56dd14610322578063dd3db9e314610352578063e985e9c514610382578063f2fde38b146103b257610121565b806370a0823114610274578063715018a6146102a45780638da5cb5b146102ae57806395d89b41146102cc578063a22cb465146102ea57610121565b8063095ea7b3116100f4578063095ea7b3146101d457806311db8d1b146101f057806323b872dd1461020c57806342842e0e146102285780636352211e1461024457610121565b806301ffc9a71461012657806306fdde0314610156578063081812fc1461017457806308598df0146101a4575b600080fd5b610140600480360381019061013b9190612118565b6103ce565b60405161014d91906124fb565b60405180910390f35b61015e6104b0565b60405161016b9190612516565b60405180910390f35b61018e6004803603810190610189919061216a565b610542565b60405161019b9190612494565b60405180910390f35b6101be60048036038101906101b99190612075565b610588565b6040516101cb9190612718565b60405180910390f35b6101ee60048036038101906101e991906120dc565b610623565b005b61020a6004803603810190610205919061216a565b61073b565b005b61022660048036038101906102219190611f6f565b6107bc565b005b610242600480360381019061023d9190611f6f565b61081c565b005b61025e6004803603810190610259919061216a565b61083c565b60405161026b9190612494565b60405180910390f35b61028e60048036038101906102899190611f0a565b6108ee565b60405161029b9190612718565b60405180910390f35b6102ac6109a6565b005b6102b66109ba565b6040516102c39190612494565b60405180910390f35b6102d46109e4565b6040516102e19190612516565b60405180910390f35b61030460048036038101906102ff9190612039565b610a76565b005b610320600480360381019061031b9190611fbe565b610a8c565b005b61033c6004803603810190610337919061216a565b610aee565b6040516103499190612516565b60405180910390f35b61036c6004803603810190610367919061216a565b610c01565b6040516103799190612718565b60405180910390f35b61039c60048036038101906103979190611f33565b610c19565b6040516103a991906124fb565b60405180910390f35b6103cc60048036038101906103c79190611f0a565b610cad565b005b60007f80ac58cd000000000000000000000000000000000000000000000000000000007bffffffffffffffffffffffffffffffffffffffffffffffffffffffff1916827bffffffffffffffffffffffffffffffffffffffffffffffffffffffff1916148061049957507f5b5e139f000000000000000000000000000000000000000000000000000000007bffffffffffffffffffffffffffffffffffffffffffffffffffffffff1916827bffffffffffffffffffffffffffffffffffffffffffffffffffffffff1916145b806104a957506104a882610d31565b5b9050919050565b6060600080546104bf9061296e565b80601f01602080910402602001604051908101604052809291908181526020018280546104eb9061296e565b80156105385780601f1061050d57610100808354040283529160200191610538565b820191906000526020600020905b81548152906001019060200180831161051b57829003601f168201915b5050505050905090565b600061054d82610d9b565b6004600083815260200190815260200160002060009054906101000a900473ffffffffffffffffffffffffffffffffffffffff169050919050565b6000610592610de6565b61059c6008610e64565b60006105a86008610e7a565b90506105b48582610e88565b6105be8185611062565b82426105ca91906127fd565b60096000838152602001908152602001600020819055507f044215c67d3b8d56e3fe696cb171f256405bb8bacb42fb78bfb2aa7df629eb36816040516106109190612718565b60405180910390a1809150509392505050565b600061062e8261083c565b90508073ffffffffffffffffffffffffffffffffffffffff168373ffffffffffffffffffffffffffffffffffffffff16141561069f576040517f08c379a0000000000000000000000000000000000000000000000000000000008152600401610696906126d8565b60405180910390fd5b8073ffffffffffffffffffffffffffffffffffffffff166106be6110d6565b73ffffffffffffffffffffffffffffffffffffffff1614806106ed57506106ec816106e76110d6565b610c19565b5b61072c576040517f08c379a000000000000000000000000000000000000000000000000000000000815260040161072390612658565b60405180910390fd5b61073683836110de565b505050565b610743610de6565b4260096000838152602001908152602001600020541115610799576040517f08c379a0000000000000000000000000000000000000000000000000000000008152600401610790906125b8565b60405180910390fd5b60096000828152602001908152602001600020600090556107b981611197565b50565b6107cd6107c76110d6565b826111ea565b61080c576040517f08c379a0000000000000000000000000000000000000000000000000000000008152600401610803906126f8565b60405180910390fd5b61081783838361127f565b505050565b61083783838360405180602001604052806000815250610a8c565b505050565b6000806002600084815260200190815260200160002060009054906101000a900473ffffffffffffffffffffffffffffffffffffffff169050600073ffffffffffffffffffffffffffffffffffffffff168173ffffffffffffffffffffffffffffffffffffffff1614156108e5576040517f08c379a00000000000000000000000000000000000000000000000000000000081526004016108dc906126b8565b60405180910390fd5b80915050919050565b60008073ffffffffffffffffffffffffffffffffffffffff168273ffffffffffffffffffffffffffffffffffffffff16141561095f576040517f08c379a000000000000000000000000000000000000000000000000000000000815260040161095690612618565b60405180910390fd5b600360008373ffffffffffffffffffffffffffffffffffffffff1673ffffffffffffffffffffffffffffffffffffffff168152602001908152602001600020549050919050565b6109ae610de6565b6109b860006114e6565b565b6000600760009054906101000a900473ffffffffffffffffffffffffffffffffffffffff16905090565b6060600180546109f39061296e565b80601f0160208091040260200160405190810160405280929190818152602001828054610a1f9061296e565b8015610a6c5780601f10610a4157610100808354040283529160200191610a6c565b820191906000526020600020905b815481529060010190602001808311610a4f57829003601f168201915b5050505050905090565b610a88610a816110d6565b83836115ac565b5050565b610a9d610a976110d6565b836111ea565b610adc576040517f08c379a0000000000000000000000000000000000000000000000000000000008152600401610ad3906126f8565b60405180910390fd5b610ae884848484611719565b50505050565b6060610af982610d9b565b6000600660008481526020019081526020016000208054610b199061296e565b80601f0160208091040260200160405190810160405280929190818152602001828054610b459061296e565b8015610b925780601f10610b6757610100808354040283529160200191610b92565b820191906000526020600020905b815481529060010190602001808311610b7557829003601f168201915b505050505090506000610ba3611775565b9050600081511415610bb9578192505050610bfc565b600082511115610bee578082604051602001610bd6929190612470565b60405160208183030381529060405292505050610bfc565b610bf78461178c565b925050505b919050565b60096020528060005260406000206000915090505481565b6000600560008473ffffffffffffffffffffffffffffffffffffffff1673ffffffffffffffffffffffffffffffffffffffff16815260200190815260200160002060008373ffffffffffffffffffffffffffffffffffffffff1673ffffffffffffffffffffffffffffffffffffffff16815260200190815260200160002060009054906101000a900460ff16905092915050565b610cb5610de6565b600073ffffffffffffffffffffffffffffffffffffffff168173ffffffffffffffffffffffffffffffffffffffff161415610d25576040517f08c379a0000000000000000000000000000000000000000000000000000000008152600401610d1c90612558565b60405180910390fd5b610d2e816114e6565b50565b60007f01ffc9a7000000000000000000000000000000000000000000000000000000007bffffffffffffffffffffffffffffffffffffffffffffffffffffffff1916827bffffffffffffffffffffffffffffffffffffffffffffffffffffffff1916149050919050565b610da4816117f4565b610de3576040517f08c379a0000000000000000000000000000000000000000000000000000000008152600401610dda906126b8565b60405180910390fd5b50565b610dee6110d6565b73ffffffffffffffffffffffffffffffffffffffff16610e0c6109ba565b73ffffffffffffffffffffffffffffffffffffffff1614610e62576040517f08c379a0000000000000000000000000000000000000000000000000000000008152600401610e5990612698565b60405180910390fd5b565b6001816000016000828254019250508190555050565b600081600001549050919050565b600073ffffffffffffffffffffffffffffffffffffffff168273ffffffffffffffffffffffffffffffffffffffff161415610ef8576040517f08c379a0000000000000000000000000000000000000000000000000000000008152600401610eef90612678565b60405180910390fd5b610f01816117f4565b15610f41576040517f08c379a0000000000000000000000000000000000000000000000000000000008152600401610f3890612598565b60405180910390fd5b610f4d60008383611860565b6001600360008473ffffffffffffffffffffffffffffffffffffffff1673ffffffffffffffffffffffffffffffffffffffff1681526020019081526020016000206000828254610f9d91906127fd565b92505081905550816002600083815260200190815260200160002060006101000a81548173ffffffffffffffffffffffffffffffffffffffff021916908373ffffffffffffffffffffffffffffffffffffffff160217905550808273ffffffffffffffffffffffffffffffffffffffff16600073ffffffffffffffffffffffffffffffffffffffff167fddf252ad1be2c89b69c2b068fc378daa952ba7f163c4a11628f55a4df523b3ef60405160405180910390a461105e60008383611865565b5050565b61106b826117f4565b6110aa576040517f08c379a00000000000000000000000000000000000000000000000000000000081526004016110a190612638565b60405180910390fd5b806006600084815260200190815260200160002090805190602001906110d1929190611cee565b505050565b600033905090565b816004600083815260200190815260200160002060006101000a81548173ffffffffffffffffffffffffffffffffffffffff021916908373ffffffffffffffffffffffffffffffffffffffff160217905550808273ffffffffffffffffffffffffffffffffffffffff166111518361083c565b73ffffffffffffffffffffffffffffffffffffffff167f8c5be1e5ebec7d5bd14f71427d1e84f3dd0314c0f7b2291e5b200ac8c7c3b92560405160405180910390a45050565b6111a08161186a565b60006006600083815260200190815260200160002080546111c09061296e565b9050146111e7576006600082815260200190815260200160002060006111e69190611d74565b5b50565b6000806111f68361083c565b90508073ffffffffffffffffffffffffffffffffffffffff168473ffffffffffffffffffffffffffffffffffffffff16148061123857506112378185610c19565b5b8061127657508373ffffffffffffffffffffffffffffffffffffffff1661125e84610542565b73ffffffffffffffffffffffffffffffffffffffff16145b91505092915050565b8273ffffffffffffffffffffffffffffffffffffffff1661129f8261083c565b73ffffffffffffffffffffffffffffffffffffffff16146112f5576040517f08c379a00000000000000000000000000000000000000000000000000000000081526004016112ec90612578565b60405180910390fd5b600073ffffffffffffffffffffffffffffffffffffffff168273ffffffffffffffffffffffffffffffffffffffff161415611365576040517f08c379a000000000000000000000000000000000000000000000000000000000815260040161135c906125d8565b60405180910390fd5b611370838383611860565b61137b6000826110de565b6001600360008573ffffffffffffffffffffffffffffffffffffffff1673ffffffffffffffffffffffffffffffffffffffff16815260200190815260200160002060008282546113cb9190612884565b925050819055506001600360008473ffffffffffffffffffffffffffffffffffffffff1673ffffffffffffffffffffffffffffffffffffffff168152602001908152602001600020600082825461142291906127fd565b92505081905550816002600083815260200190815260200160002060006101000a81548173ffffffffffffffffffffffffffffffffffffffff021916908373ffffffffffffffffffffffffffffffffffffffff160217905550808273ffffffffffffffffffffffffffffffffffffffff168473ffffffffffffffffffffffffffffffffffffffff167fddf252ad1be2c89b69c2b068fc378daa952ba7f163c4a11628f55a4df523b3ef60405160405180910390a46114e1838383611865565b505050565b6000600760009054906101000a900473ffffffffffffffffffffffffffffffffffffffff16905081600760006101000a81548173ffffffffffffffffffffffffffffffffffffffff021916908373ffffffffffffffffffffffffffffffffffffffff1602179055508173ffffffffffffffffffffffffffffffffffffffff168173ffffffffffffffffffffffffffffffffffffffff167f8be0079c531659141344cd1fd0a4f28419497f9722a3daafe3b4186f6b6457e060405160405180910390a35050565b8173ffffffffffffffffffffffffffffffffffffffff168373ffffffffffffffffffffffffffffffffffffffff16141561161b576040517f08c379a0000000000000000000000000000000000000000000000000000000008152600401611612906125f8565b60405180910390fd5b80600560008573ffffffffffffffffffffffffffffffffffffffff1673ffffffffffffffffffffffffffffffffffffffff16815260200190815260200160002060008473ffffffffffffffffffffffffffffffffffffffff1673ffffffffffffffffffffffffffffffffffffffff16815260200190815260200160002060006101000a81548160ff0219169083151502179055508173ffffffffffffffffffffffffffffffffffffffff168373ffffffffffffffffffffffffffffffffffffffff167f17307eab39ab6107e8899845ad3d59bd9653f200f220920489ca2b5937696c318360405161170c91906124fb565b60405180910390a3505050565b61172484848461127f565b61173084848484611987565b61176f576040517f08c379a000000000000000000000000000000000000000000000000000000000815260040161176690612538565b60405180910390fd5b50505050565b606060405180602001604052806000815250905090565b606061179782610d9b565b60006117a1611775565b905060008151116117c157604051806020016040528060008152506117ec565b806117cb84611b1e565b6040516020016117dc929190612470565b6040516020818303038152906040525b915050919050565b60008073ffffffffffffffffffffffffffffffffffffffff166002600084815260200190815260200160002060009054906101000a900473ffffffffffffffffffffffffffffffffffffffff1673ffffffffffffffffffffffffffffffffffffffff1614159050919050565b505050565b505050565b60006118758261083c565b905061188381600084611860565b61188e6000836110de565b6001600360008373ffffffffffffffffffffffffffffffffffffffff1673ffffffffffffffffffffffffffffffffffffffff16815260200190815260200160002060008282546118de9190612884565b925050819055506002600083815260200190815260200160002060006101000a81549073ffffffffffffffffffffffffffffffffffffffff021916905581600073ffffffffffffffffffffffffffffffffffffffff168273ffffffffffffffffffffffffffffffffffffffff167fddf252ad1be2c89b69c2b068fc378daa952ba7f163c4a11628f55a4df523b3ef60405160405180910390a461198381600084611865565b5050565b60006119a88473ffffffffffffffffffffffffffffffffffffffff16611ccb565b15611b11578373ffffffffffffffffffffffffffffffffffffffff1663150b7a026119d16110d6565b8786866040518563ffffffff1660e01b81526004016119f394939291906124af565b602060405180830381600087803b158015611a0d57600080fd5b505af1925050508015611a3e57506040513d601f19601f82011682018060405250810190611a3b9190612141565b60015b611ac1573d8060008114611a6e576040519150601f19603f3d011682016040523d82523d6000602084013e611a73565b606091505b50600081511415611ab9576040517f08c379a0000000000000000000000000000000000000000000000000000000008152600401611ab090612538565b60405180910390fd5b805181602001fd5b63150b7a0260e01b7bffffffffffffffffffffffffffffffffffffffffffffffffffffffff1916817bffffffffffffffffffffffffffffffffffffffffffffffffffffffff191614915050611b16565b600190505b949350505050565b60606000821415611b66576040518060400160405280600181526020017f30000000000000000000000000000000000000000000000000000000000000008152509050611cc6565b600082905060005b60008214611b98578080611b81906129d1565b915050600a82611b919190612853565b9150611b6e565b60008167ffffffffffffffff811115611bda577f4e487b7100000000000000000000000000000000000000000000000000000000600052604160045260246000fd5b6040519080825280601f01601f191660200182016040528015611c0c5781602001600182028036833780820191505090505b5090505b60008514611cbf57600182611c259190612884565b9150600a85611c349190612a1a565b6030611c4091906127fd565b60f81b818381518110611c7c577f4e487b7100000000000000000000000000000000000000000000000000000000600052603260045260246000fd5b60200101907effffffffffffffffffffffffffffffffffffffffffffffffffffffffffffff1916908160001a905350600a85611cb89190612853565b9450611c10565b8093505050505b919050565b6000808273ffffffffffffffffffffffffffffffffffffffff163b119050919050565b828054611cfa9061296e565b90600052602060002090601f016020900481019282611d1c5760008555611d63565b82601f10611d3557805160ff1916838001178555611d63565b82800160010185558215611d63579182015b82811115611d62578251825591602001919060010190611d47565b5b509050611d709190611db4565b5090565b508054611d809061296e565b6000825580601f10611d925750611db1565b601f016020900490600052602060002090810190611db09190611db4565b5b50565b5b80821115611dcd576000816000905550600101611db5565b5090565b6000611de4611ddf84612758565b612733565b905082815260208101848484011115611dfc57600080fd5b611e0784828561292c565b509392505050565b6000611e22611e1d84612789565b612733565b905082815260208101848484011115611e3a57600080fd5b611e4584828561292c565b509392505050565b600081359050611e5c81612ed5565b92915050565b600081359050611e7181612eec565b92915050565b600081359050611e8681612f03565b92915050565b600081519050611e9b81612f03565b92915050565b600082601f830112611eb257600080fd5b8135611ec2848260208601611dd1565b91505092915050565b600082601f830112611edc57600080fd5b8135611eec848260208601611e0f565b91505092915050565b600081359050611f0481612f1a565b92915050565b600060208284031215611f1c57600080fd5b6000611f2a84828501611e4d565b91505092915050565b60008060408385031215611f4657600080fd5b6000611f5485828601611e4d565b9250506020611f6585828601611e4d565b9150509250929050565b600080600060608486031215611f8457600080fd5b6000611f9286828701611e4d565b9350506020611fa386828701611e4d565b9250506040611fb486828701611ef5565b9150509250925092565b60008060008060808587031215611fd457600080fd5b6000611fe287828801611e4d565b9450506020611ff387828801611e4d565b935050604061200487828801611ef5565b925050606085013567ffffffffffffffff81111561202157600080fd5b61202d87828801611ea1565b91505092959194509250565b6000806040838503121561204c57600080fd5b600061205a85828601611e4d565b925050602061206b85828601611e62565b9150509250929050565b60008060006060848603121561208a57600080fd5b600061209886828701611e4d565b935050602084013567ffffffffffffffff8111156120b557600080fd5b6120c186828701611ecb565b92505060406120d286828701611ef5565b9150509250925092565b600080604083850312156120ef57600080fd5b60006120fd85828601611e4d565b925050602061210e85828601611ef5565b9150509250929050565b60006020828403121561212a57600080fd5b600061213884828501611e77565b91505092915050565b60006020828403121561215357600080fd5b600061216184828501611e8c565b91505092915050565b60006020828403121561217c57600080fd5b600061218a84828501611ef5565b91505092915050565b61219c816128b8565b82525050565b6121ab816128ca565b82525050565b60006121bc826127ba565b6121c681856127d0565b93506121d681856020860161293b565b6121df81612b07565b840191505092915050565b60006121f5826127c5565b6121ff81856127e1565b935061220f81856020860161293b565b61221881612b07565b840191505092915050565b600061222e826127c5565b61223881856127f2565b935061224881856020860161293b565b80840191505092915050565b60006122616032836127e1565b915061226c82612b18565b604082019050919050565b60006122846026836127e1565b915061228f82612b67565b604082019050919050565b60006122a76025836127e1565b91506122b282612bb6565b604082019050919050565b60006122ca601c836127e1565b91506122d582612c05565b602082019050919050565b60006122ed600b836127e1565b91506122f882612c2e565b602082019050919050565b60006123106024836127e1565b915061231b82612c57565b604082019050919050565b60006123336019836127e1565b915061233e82612ca6565b602082019050919050565b60006123566029836127e1565b915061236182612ccf565b604082019050919050565b6000612379602e836127e1565b915061238482612d1e565b604082019050919050565b600061239c603e836127e1565b91506123a782612d6d565b604082019050919050565b60006123bf6020836127e1565b91506123ca82612dbc565b602082019050919050565b60006123e26020836127e1565b91506123ed82612de5565b602082019050919050565b60006124056018836127e1565b915061241082612e0e565b602082019050919050565b60006124286021836127e1565b915061243382612e37565b604082019050919050565b600061244b602e836127e1565b915061245682612e86565b604082019050919050565b61246a81612922565b82525050565b600061247c8285612223565b91506124888284612223565b91508190509392505050565b60006020820190506124a96000830184612193565b92915050565b60006080820190506124c46000830187612193565b6124d16020830186612193565b6124de6040830185612461565b81810360608301526124f081846121b1565b905095945050505050565b600060208201905061251060008301846121a2565b92915050565b6000602082019050818103600083015261253081846121ea565b905092915050565b6000602082019050818103600083015261255181612254565b9050919050565b6000602082019050818103600083015261257181612277565b9050919050565b600060208201905081810360008301526125918161229a565b9050919050565b600060208201905081810360008301526125b1816122bd565b9050919050565b600060208201905081810360008301526125d1816122e0565b9050919050565b600060208201905081810360008301526125f181612303565b9050919050565b6000602082019050818103600083015261261181612326565b9050919050565b6000602082019050818103600083015261263181612349565b9050919050565b600060208201905081810360008301526126518161236c565b9050919050565b600060208201905081810360008301526126718161238f565b9050919050565b60006020820190508181036000830152612691816123b2565b9050919050565b600060208201905081810360008301526126b1816123d5565b9050919050565b600060208201905081810360008301526126d1816123f8565b9050919050565b600060208201905081810360008301526126f18161241b565b9050919050565b600060208201905081810360008301526127118161243e565b9050919050565b600060208201905061272d6000830184612461565b92915050565b600061273d61274e565b905061274982826129a0565b919050565b6000604051905090565b600067ffffffffffffffff82111561277357612772612ad8565b5b61277c82612b07565b9050602081019050919050565b600067ffffffffffffffff8211156127a4576127a3612ad8565b5b6127ad82612b07565b9050602081019050919050565b600081519050919050565b600081519050919050565b600082825260208201905092915050565b600082825260208201905092915050565b600081905092915050565b600061280882612922565b915061281383612922565b9250827fffffffffffffffffffffffffffffffffffffffffffffffffffffffffffffffff0382111561284857612847612a4b565b5b828201905092915050565b600061285e82612922565b915061286983612922565b92508261287957612878612a7a565b5b828204905092915050565b600061288f82612922565b915061289a83612922565b9250828210156128ad576128ac612a4b565b5b828203905092915050565b60006128c382612902565b9050919050565b60008115159050919050565b60007fffffffff0000000000000000000000000000000000000000000000000000000082169050919050565b600073ffffffffffffffffffffffffffffffffffffffff82169050919050565b6000819050919050565b82818337600083830152505050565b60005b8381101561295957808201518184015260208101905061293e565b83811115612968576000848401525b50505050565b6000600282049050600182168061298657607f821691505b6020821081141561299a57612999612aa9565b5b50919050565b6129a982612b07565b810181811067ffffffffffffffff821117156129c8576129c7612ad8565b5b80604052505050565b60006129dc82612922565b91507fffffffffffffffffffffffffffffffffffffffffffffffffffffffffffffffff821415612a0f57612a0e612a4b565b5b600182019050919050565b6000612a2582612922565b9150612a3083612922565b925082612a4057612a3f612a7a565b5b828206905092915050565b7f4e487b7100000000000000000000000000000000000000000000000000000000600052601160045260246000fd5b7f4e487b7100000000000000000000000000000000000000000000000000000000600052601260045260246000fd5b7f4e487b7100000000000000000000000000000000000000000000000000000000600052602260045260246000fd5b7f4e487b7100000000000000000000000000000000000000000000000000000000600052604160045260246000fd5b6000601f19601f8301169050919050565b7f4552433732313a207472616e7366657220746f206e6f6e20455243373231526560008201527f63656976657220696d706c656d656e7465720000000000000000000000000000602082015250565b7f4f776e61626c653a206e6577206f776e657220697320746865207a65726f206160008201527f6464726573730000000000000000000000000000000000000000000000000000602082015250565b7f4552433732313a207472616e736665722066726f6d20696e636f72726563742060008201527f6f776e6572000000000000000000000000000000000000000000000000000000602082015250565b7f4552433732313a20746f6b656e20616c7265616479206d696e74656400000000600082015250565b7f4e4f74205965742042726f000000000000000000000000000000000000000000600082015250565b7f4552433732313a207472616e7366657220746f20746865207a65726f2061646460008201527f7265737300000000000000000000000000000000000000000000000000000000602082015250565b7f4552433732313a20617070726f766520746f2063616c6c657200000000000000600082015250565b7f4552433732313a2061646472657373207a65726f206973206e6f74206120766160008201527f6c6964206f776e65720000000000000000000000000000000000000000000000602082015250565b7f45524337323155524953746f726167653a2055524920736574206f66206e6f6e60008201527f6578697374656e7420746f6b656e000000000000000000000000000000000000602082015250565b7f4552433732313a20617070726f76652063616c6c6572206973206e6f7420746f60008201527f6b656e206f776e6572206e6f7220617070726f76656420666f7220616c6c0000602082015250565b7f4552433732313a206d696e7420746f20746865207a65726f2061646472657373600082015250565b7f4f776e61626c653a2063616c6c6572206973206e6f7420746865206f776e6572600082015250565b7f4552433732313a20696e76616c696420746f6b656e2049440000000000000000600082015250565b7f4552433732313a20617070726f76616c20746f2063757272656e74206f776e6560008201527f7200000000000000000000000000000000000000000000000000000000000000602082015250565b7f4552433732313a2063616c6c6572206973206e6f7420746f6b656e206f776e6560008201527f72206e6f7220617070726f766564000000000000000000000000000000000000602082015250565b612ede816128b8565b8114612ee957600080fd5b50565b612ef5816128ca565b8114612f0057600080fd5b50565b612f0c816128d6565b8114612f1757600080fd5b50565b612f2381612922565b8114612f2e57600080fd5b5056fea2646970667358221220f17b599085997612c6bf7b52e661b6181791b796adaa3ab51d7eac0b72effc7464736f6c63430008010033",
  "linkReferences": {},
  "deployedLinkReferences": {}
}